{
  "contractName": "SapTestToken",
  "abi": [
    {
      "inputs": [
        {
          "internalType": "address",
          "name": "target",
          "type": "address"
        }
      ],
      "name": "AddressEmptyCode",
      "type": "error"
    },
    {
      "inputs": [
        {
          "internalType": "address",
          "name": "implementation",
          "type": "address"
        }
      ],
      "name": "ERC1967InvalidImplementation",
      "type": "error"
    },
    {
      "inputs": [],
      "name": "ERC1967NonPayable",
      "type": "error"
    },
    {
      "inputs": [
        {
          "internalType": "address",
          "name": "spender",
          "type": "address"
        },
        {
          "internalType": "uint256",
          "name": "allowance",
          "type": "uint256"
        },
        {
          "internalType": "uint256",
          "name": "needed",
          "type": "uint256"
        }
      ],
      "name": "ERC20InsufficientAllowance",
      "type": "error"
    },
    {
      "inputs": [
        {
          "internalType": "address",
          "name": "sender",
          "type": "address"
        },
        {
          "internalType": "uint256",
          "name": "balance",
          "type": "uint256"
        },
        {
          "internalType": "uint256",
          "name": "needed",
          "type": "uint256"
        }
      ],
      "name": "ERC20InsufficientBalance",
      "type": "error"
    },
    {
      "inputs": [
        {
          "internalType": "address",
          "name": "approver",
          "type": "address"
        }
      ],
      "name": "ERC20InvalidApprover",
      "type": "error"
    },
    {
      "inputs": [
        {
          "internalType": "address",
          "name": "receiver",
          "type": "address"
        }
      ],
      "name": "ERC20InvalidReceiver",
      "type": "error"
    },
    {
      "inputs": [
        {
          "internalType": "address",
          "name": "sender",
          "type": "address"
        }
      ],
      "name": "ERC20InvalidSender",
      "type": "error"
    },
    {
      "inputs": [
        {
          "internalType": "address",
          "name": "spender",
          "type": "address"
        }
      ],
      "name": "ERC20InvalidSpender",
      "type": "error"
    },
    {
      "inputs": [],
      "name": "EnforcedPause",
      "type": "error"
    },
    {
      "inputs": [],
      "name": "ExpectedPause",
      "type": "error"
    },
    {
      "inputs": [],
      "name": "FailedInnerCall",
      "type": "error"
    },
    {
      "inputs": [],
      "name": "InvalidInitialization",
      "type": "error"
    },
    {
      "inputs": [],
      "name": "NotInitializing",
      "type": "error"
    },
    {
      "inputs": [
        {
          "internalType": "address",
          "name": "owner",
          "type": "address"
        }
      ],
      "name": "OwnableInvalidOwner",
      "type": "error"
    },
    {
      "inputs": [
        {
          "internalType": "address",
          "name": "account",
          "type": "address"
        }
      ],
      "name": "OwnableUnauthorizedAccount",
      "type": "error"
    },
    {
      "inputs": [],
      "name": "UUPSUnauthorizedCallContext",
      "type": "error"
    },
    {
      "inputs": [
        {
          "internalType": "bytes32",
          "name": "slot",
          "type": "bytes32"
        }
      ],
      "name": "UUPSUnsupportedProxiableUUID",
      "type": "error"
    },
    {
      "anonymous": false,
      "inputs": [
        {
          "indexed": true,
          "internalType": "address",
          "name": "owner",
          "type": "address"
        },
        {
          "indexed": true,
          "internalType": "address",
          "name": "spender",
          "type": "address"
        },
        {
          "indexed": false,
          "internalType": "uint256",
          "name": "value",
          "type": "uint256"
        }
      ],
      "name": "Approval",
      "type": "event"
    },
    {
      "anonymous": false,
      "inputs": [
        {
          "indexed": false,
          "internalType": "string",
          "name": "msg",
          "type": "string"
        }
      ],
      "name": "ContractInitiated",
      "type": "event"
    },
    {
      "anonymous": false,
      "inputs": [
        {
          "indexed": false,
          "internalType": "uint64",
          "name": "version",
          "type": "uint64"
        }
      ],
      "name": "Initialized",
      "type": "event"
    },
    {
      "anonymous": false,
      "inputs": [
        {
          "indexed": true,
          "internalType": "address",
          "name": "previousOwner",
          "type": "address"
        },
        {
          "indexed": true,
          "internalType": "address",
          "name": "newOwner",
          "type": "address"
        }
      ],
      "name": "OwnershipTransferred",
      "type": "event"
    },
    {
      "anonymous": false,
      "inputs": [
        {
          "indexed": false,
          "internalType": "address",
          "name": "account",
          "type": "address"
        }
      ],
      "name": "Paused",
      "type": "event"
    },
    {
      "anonymous": false,
      "inputs": [
        {
          "indexed": true,
          "internalType": "address",
          "name": "from",
          "type": "address"
        },
        {
          "indexed": true,
          "internalType": "address",
          "name": "to",
          "type": "address"
        },
        {
          "indexed": false,
          "internalType": "uint256",
          "name": "value",
          "type": "uint256"
        }
      ],
      "name": "Transfer",
      "type": "event"
    },
    {
      "anonymous": false,
      "inputs": [
        {
          "indexed": false,
          "internalType": "address",
          "name": "account",
          "type": "address"
        }
      ],
      "name": "Unpaused",
      "type": "event"
    },
    {
      "anonymous": false,
      "inputs": [
        {
          "indexed": true,
          "internalType": "address",
          "name": "implementation",
          "type": "address"
        }
      ],
      "name": "Upgraded",
      "type": "event"
    },
    {
      "anonymous": false,
      "inputs": [
        {
          "indexed": false,
          "internalType": "string",
          "name": "allocationType",
          "type": "string"
        },
        {
          "components": [
            {
              "internalType": "uint256",
              "name": "cliff",
              "type": "uint256"
            },
            {
              "internalType": "uint256",
              "name": "start",
              "type": "uint256"
            },
            {
              "internalType": "uint256",
              "name": "duration",
              "type": "uint256"
            },
            {
              "internalType": "uint256",
              "name": "amount",
              "type": "uint256"
            },
            {
              "internalType": "uint256",
              "name": "released",
              "type": "uint256"
            },
            {
              "internalType": "bool",
              "name": "revoked",
              "type": "bool"
            },
            {
              "internalType": "address",
              "name": "safe",
              "type": "address"
            }
          ],
          "indexed": false,
          "internalType": "struct SapTestToken.VestingSchedule",
          "name": "schedule",
          "type": "tuple"
        }
      ],
      "name": "VestingScheduleCreated",
      "type": "event"
    },
    {
      "inputs": [],
      "name": "AIRDROPS_ALLOCATION",
      "outputs": [
        {
          "internalType": "uint256",
          "name": "",
          "type": "uint256"
        }
      ],
      "stateMutability": "view",
      "type": "function"
    },
    {
      "inputs": [],
      "name": "COMMUNITY_TREASURY_ALLOCATION",
      "outputs": [
        {
          "internalType": "uint256",
          "name": "",
          "type": "uint256"
        }
      ],
      "stateMutability": "view",
      "type": "function"
    },
    {
      "inputs": [],
      "name": "INVESTORS_ALLOCATION",
      "outputs": [
        {
          "internalType": "uint256",
          "name": "",
          "type": "uint256"
        }
      ],
      "stateMutability": "view",
      "type": "function"
    },
    {
      "inputs": [],
      "name": "LABELING_REWARDS_ALLOCATION",
      "outputs": [
        {
          "internalType": "uint256",
          "name": "",
          "type": "uint256"
        }
      ],
      "stateMutability": "view",
      "type": "function"
    },
    {
      "inputs": [],
      "name": "LIQUIDITY_INCENTIVES_ALLOCATION",
      "outputs": [
        {
          "internalType": "uint256",
          "name": "",
          "type": "uint256"
        }
      ],
      "stateMutability": "view",
      "type": "function"
    },
    {
      "inputs": [],
      "name": "STAKING_INCENTIVES_ALLOCATION",
      "outputs": [
        {
          "internalType": "uint256",
          "name": "",
          "type": "uint256"
        }
      ],
      "stateMutability": "view",
      "type": "function"
    },
    {
      "inputs": [],
      "name": "TEAM_ADVISORS_ALLOCATION",
      "outputs": [
        {
          "internalType": "uint256",
          "name": "",
          "type": "uint256"
        }
      ],
      "stateMutability": "view",
      "type": "function"
    },
    {
      "inputs": [],
      "name": "UPGRADE_INTERFACE_VERSION",
      "outputs": [
        {
          "internalType": "string",
          "name": "",
          "type": "string"
        }
      ],
      "stateMutability": "view",
      "type": "function"
    },
    {
      "inputs": [
        {
          "internalType": "address",
          "name": "owner",
          "type": "address"
        },
        {
          "internalType": "address",
          "name": "spender",
          "type": "address"
        }
      ],
      "name": "allowance",
      "outputs": [
        {
          "internalType": "uint256",
          "name": "",
          "type": "uint256"
        }
      ],
      "stateMutability": "view",
      "type": "function"
    },
    {
      "inputs": [
        {
          "internalType": "address",
          "name": "spender",
          "type": "address"
        },
        {
          "internalType": "uint256",
          "name": "value",
          "type": "uint256"
        }
      ],
      "name": "approve",
      "outputs": [
        {
          "internalType": "bool",
          "name": "",
          "type": "bool"
        }
      ],
      "stateMutability": "nonpayable",
      "type": "function"
    },
    {
      "inputs": [
        {
          "internalType": "address",
          "name": "account",
          "type": "address"
        }
      ],
      "name": "balanceOf",
      "outputs": [
        {
          "internalType": "uint256",
          "name": "",
          "type": "uint256"
        }
      ],
      "stateMutability": "view",
      "type": "function"
    },
    {
      "inputs": [],
      "name": "decimals",
      "outputs": [
        {
          "internalType": "uint8",
          "name": "",
          "type": "uint8"
        }
      ],
      "stateMutability": "view",
      "type": "function"
    },
    {
      "inputs": [],
      "name": "gnosisSafe",
      "outputs": [
        {
          "internalType": "address",
          "name": "",
          "type": "address"
        }
      ],
      "stateMutability": "view",
      "type": "function"
    },
    {
      "inputs": [],
      "name": "name",
      "outputs": [
        {
          "internalType": "string",
          "name": "",
          "type": "string"
        }
      ],
      "stateMutability": "view",
      "type": "function"
    },
    {
      "inputs": [],
      "name": "owner",
      "outputs": [
        {
          "internalType": "address",
          "name": "",
          "type": "address"
        }
      ],
      "stateMutability": "view",
      "type": "function"
    },
    {
      "inputs": [],
      "name": "paused",
      "outputs": [
        {
          "internalType": "bool",
          "name": "",
          "type": "bool"
        }
      ],
      "stateMutability": "view",
      "type": "function"
    },
    {
      "inputs": [],
      "name": "proxiableUUID",
      "outputs": [
        {
          "internalType": "bytes32",
          "name": "",
          "type": "bytes32"
        }
      ],
      "stateMutability": "view",
      "type": "function"
    },
    {
      "inputs": [],
      "name": "renounceOwnership",
      "outputs": [],
      "stateMutability": "nonpayable",
      "type": "function"
    },
    {
      "inputs": [],
      "name": "symbol",
      "outputs": [
        {
          "internalType": "string",
          "name": "",
          "type": "string"
        }
      ],
      "stateMutability": "view",
      "type": "function"
    },
    {
      "inputs": [],
      "name": "totalSupply",
      "outputs": [
        {
          "internalType": "uint256",
          "name": "",
          "type": "uint256"
        }
      ],
      "stateMutability": "view",
      "type": "function"
    },
    {
      "inputs": [
        {
          "internalType": "address",
          "name": "to",
          "type": "address"
        },
        {
          "internalType": "uint256",
          "name": "value",
          "type": "uint256"
        }
      ],
      "name": "transfer",
      "outputs": [
        {
          "internalType": "bool",
          "name": "",
          "type": "bool"
        }
      ],
      "stateMutability": "nonpayable",
      "type": "function"
    },
    {
      "inputs": [
        {
          "internalType": "address",
          "name": "from",
          "type": "address"
        },
        {
          "internalType": "address",
          "name": "to",
          "type": "address"
        },
        {
          "internalType": "uint256",
          "name": "value",
          "type": "uint256"
        }
      ],
      "name": "transferFrom",
      "outputs": [
        {
          "internalType": "bool",
          "name": "",
          "type": "bool"
        }
      ],
      "stateMutability": "nonpayable",
      "type": "function"
    },
    {
      "inputs": [
        {
          "internalType": "address",
          "name": "newOwner",
          "type": "address"
        }
      ],
      "name": "transferOwnership",
      "outputs": [],
      "stateMutability": "nonpayable",
      "type": "function"
    },
    {
      "inputs": [
        {
          "internalType": "address",
          "name": "newImplementation",
          "type": "address"
        },
        {
          "internalType": "bytes",
          "name": "data",
          "type": "bytes"
        }
      ],
      "name": "upgradeToAndCall",
      "outputs": [],
      "stateMutability": "payable",
      "type": "function"
    },
    {
      "inputs": [
        {
          "internalType": "string",
          "name": "",
          "type": "string"
        }
      ],
      "name": "vestingSchedules",
      "outputs": [
        {
          "internalType": "uint256",
          "name": "cliff",
          "type": "uint256"
        },
        {
          "internalType": "uint256",
          "name": "start",
          "type": "uint256"
        },
        {
          "internalType": "uint256",
          "name": "duration",
          "type": "uint256"
        },
        {
          "internalType": "uint256",
          "name": "amount",
          "type": "uint256"
        },
        {
          "internalType": "uint256",
          "name": "released",
          "type": "uint256"
        },
        {
          "internalType": "bool",
          "name": "revoked",
          "type": "bool"
        },
        {
          "internalType": "address",
          "name": "safe",
          "type": "address"
        }
      ],
      "stateMutability": "view",
      "type": "function"
    },
    {
      "inputs": [
        {
          "internalType": "address",
          "name": "_gnosisSafe",
          "type": "address"
        },
        {
          "internalType": "uint256",
          "name": "_totalSupply",
          "type": "uint256"
        }
      ],
      "name": "initialize",
      "outputs": [],
      "stateMutability": "nonpayable",
      "type": "function"
    },
    {
      "inputs": [
        {
          "internalType": "string",
          "name": "allocationType",
          "type": "string"
        }
      ],
      "name": "releaseTokens",
      "outputs": [],
      "stateMutability": "nonpayable",
      "type": "function"
    },
    {
      "inputs": [],
      "name": "pause",
      "outputs": [],
      "stateMutability": "nonpayable",
      "type": "function"
    },
    {
      "inputs": [],
      "name": "unpause",
      "outputs": [],
      "stateMutability": "nonpayable",
      "type": "function"
    }
  ],
  "bytecode": "0x60a06040523073ffffffffffffffffffffffffffffffffffffffff1660809073ffffffffffffffffffffffffffffffffffffffff16815250348015610042575f80fd5b50608051613bd76100695f395f81816113100152818161136501526115a60152613bd75ff3fe6080604052600436106101c1575f3560e01c806370a08231116100f6578063a9059cbb11610094578063dd62ed3e11610063578063dd62ed3e146105f3578063f16ebb111461062f578063f2fde38b14610659578063fb7426f614610681576101c1565b8063a9059cbb1461053b578063ad3cb1cc14610577578063cd6dc687146105a1578063d75e0e0d146105c9576101c1565b80638456cb59116100d05780638456cb59146104a75780638da5cb5b146104bd57806395d89b41146104e7578063a84173ae14610511576101c1565b806370a082311461042b578063715018a6146104675780637e560c1e1461047d576101c1565b8063313ce567116101635780634f1ef2861161013d5780634f1ef2861461039157806352d1902d146103ad578063575d7b15146103d75780635c975abb14610401576101c1565b8063313ce567146103275780633e14b63e146103515780633f4ba83a1461037b576101c1565b806313a7bcca1161019f57806313a7bcca1461026d57806318160ddd1461029757806323b872dd146102c1578063300ad95c146102fd576101c1565b80630405be0d146101c557806306fdde0314610207578063095ea7b314610231575b5f80fd5b3480156101d0575f80fd5b506101eb60048036038101906101e69190612c27565b6106a9565b6040516101fe9796959493929190612cdf565b60405180910390f35b348015610212575f80fd5b5061021b61072b565b6040516102289190612dc6565b60405180910390f35b34801561023c575f80fd5b5061025760048036038101906102529190612e3a565b6107c9565b6040516102649190612e78565b60405180910390f35b348015610278575f80fd5b506102816107eb565b60405161028e9190612e91565b60405180910390f35b3480156102a2575f80fd5b506102ab6107fa565b6040516102b89190612e91565b60405180910390f35b3480156102cc575f80fd5b506102e760048036038101906102e29190612eaa565b610811565b6040516102f49190612e78565b60405180910390f35b348015610308575f80fd5b5061031161083f565b60405161031e9190612e91565b60405180910390f35b348015610332575f80fd5b5061033b61084e565b6040516103489190612f15565b60405180910390f35b34801561035c575f80fd5b50610365610856565b6040516103729190612e91565b60405180910390f35b348015610386575f80fd5b5061038f610865565b005b6103ab60048036038101906103a69190612fcc565b6108fe565b005b3480156103b8575f80fd5b506103c161091d565b6040516103ce919061303e565b60405180910390f35b3480156103e2575f80fd5b506103eb61094e565b6040516103f89190612e91565b60405180910390f35b34801561040c575f80fd5b5061041561095d565b6040516104229190612e78565b60405180910390f35b348015610436575f80fd5b50610451600480360381019061044c9190613057565b61097f565b60405161045e9190612e91565b60405180910390f35b348015610472575f80fd5b5061047b6109d2565b005b348015610488575f80fd5b506104916109e5565b60405161049e9190612e91565b60405180910390f35b3480156104b2575f80fd5b506104bb6109f4565b005b3480156104c8575f80fd5b506104d1610a8d565b6040516104de9190613082565b60405180910390f35b3480156104f2575f80fd5b506104fb610ac2565b6040516105089190612dc6565b60405180910390f35b34801561051c575f80fd5b50610525610b60565b6040516105329190613082565b60405180910390f35b348015610546575f80fd5b50610561600480360381019061055c9190612e3a565b610b85565b60405161056e9190612e78565b60405180910390f35b348015610582575f80fd5b5061058b610ba7565b6040516105989190612dc6565b60405180910390f35b3480156105ac575f80fd5b506105c760048036038101906105c29190612e3a565b610be0565b005b3480156105d4575f80fd5b506105dd610e94565b6040516105ea9190612e91565b60405180910390f35b3480156105fe575f80fd5b506106196004803603810190610614919061309b565b610ea3565b6040516106269190612e91565b60405180910390f35b34801561063a575f80fd5b50610643610f33565b6040516106509190612e91565b60405180910390f35b348015610664575f80fd5b5061067f600480360381019061067a9190613057565b610f42565b005b34801561068c575f80fd5b506106a760048036038101906106a29190613136565b610fc6565b005b6001818051602081018201805184825260208301602085012081835280955050505050505f91509050805f015490806001015490806002015490806003015490806004015490806005015f9054906101000a900460ff16908060050160019054906101000a900473ffffffffffffffffffffffffffffffffffffffff16905087565b60605f6107366110d7565b9050806003018054610747906131ae565b80601f0160208091040260200160405190810160405280929190818152602001828054610773906131ae565b80156107be5780601f10610795576101008083540402835291602001916107be565b820191905f5260205f20905b8154815290600101906020018083116107a157829003601f168201915b505050505091505090565b5f806107d36110fe565b90506107e081858561110c565b600191505092915050565b6a7c13bc4b2c133c5600000081565b5f806108046110d7565b9050806002015491505090565b5f8061081b6110fe565b905061082885828561111e565b6108338585856111b0565b60019150509392505050565b6af8277896582678ac00000081565b5f6012905090565b6aa56fa5b99019a5c800000081565b60025f9054906101000a900473ffffffffffffffffffffffffffffffffffffffff1673ffffffffffffffffffffffffffffffffffffffff163373ffffffffffffffffffffffffffffffffffffffff16146108f4576040517f08c379a00000000000000000000000000000000000000000000000000000000081526004016108eb90613228565b60405180910390fd5b6108fc6112a0565b565b61090661130e565b61090f826113f4565b6109198282611486565b5050565b5f6109266115a4565b7f360894a13ba1a3210667c828492db98dca3e2076cc3735a920a3ca505d382bbc5f1b905090565b6a7c13bc4b2c133c5600000081565b5f8061096761162b565b9050805f015f9054906101000a900460ff1691505090565b5f806109896110d7565b9050805f015f8473ffffffffffffffffffffffffffffffffffffffff1673ffffffffffffffffffffffffffffffffffffffff1681526020019081526020015f2054915050919050565b6109da611652565b6109e35f6116d9565b565b6a52b7d2dcc80cd2e400000081565b60025f9054906101000a900473ffffffffffffffffffffffffffffffffffffffff1673ffffffffffffffffffffffffffffffffffffffff163373ffffffffffffffffffffffffffffffffffffffff1614610a83576040517f08c379a0000000000000000000000000000000000000000000000000000000008152600401610a7a90613228565b60405180910390fd5b610a8b6117aa565b565b5f80610a97611819565b9050805f015f9054906101000a900473ffffffffffffffffffffffffffffffffffffffff1691505090565b60605f610acd6110d7565b9050806004018054610ade906131ae565b80601f0160208091040260200160405190810160405280929190818152602001828054610b0a906131ae565b8015610b555780601f10610b2c57610100808354040283529160200191610b55565b820191905f5260205f20905b815481529060010190602001808311610b3857829003601f168201915b505050505091505090565b60025f9054906101000a900473ffffffffffffffffffffffffffffffffffffffff1681565b5f80610b8f6110fe565b9050610b9c8185856111b0565b600191505092915050565b6040518060400160405280600581526020017f352e302e3000000000000000000000000000000000000000000000000000000081525081565b5f610be9611840565b90505f815f0160089054906101000a900460ff161590505f825f015f9054906101000a900467ffffffffffffffff1690505f808267ffffffffffffffff16148015610c315750825b90505f60018367ffffffffffffffff16148015610c6457505f3073ffffffffffffffffffffffffffffffffffffffff163b145b905081158015610c72575080155b15610ca9576040517ff92ee8a900000000000000000000000000000000000000000000000000000000815260040160405180910390fd5b6001855f015f6101000a81548167ffffffffffffffff021916908367ffffffffffffffff1602179055508315610cf6576001855f0160086101000a81548160ff0219169083151502179055505b8660025f6101000a81548173ffffffffffffffffffffffffffffffffffffffff021916908373ffffffffffffffffffffffffffffffffffffffff160217905550610daa6040518060400160405280600c81526020017f53617054657374546f6b656e00000000000000000000000000000000000000008152506040518060400160405280600781526020017f5341505445535400000000000000000000000000000000000000000000000000815250611867565b610dd460025f9054906101000a900473ffffffffffffffffffffffffffffffffffffffff1661187d565b610ddc611891565b610de46118a3565b7f4b257b6fb5b8394ea62077dd4f307f41d6138adbeae7c78ea5028630469e2643604051610e1190613290565b60405180910390a1425f81905550610e2987876118ad565b610e3161192c565b8315610e8b575f855f0160086101000a81548160ff0219169083151502179055507fc7f505b2f371ae2175ee4913f4499e1f2633a7b5936321eed1cdaeb6115181d26001604051610e829190613303565b60405180910390a15b50505050505050565b6a295be96e6406697200000081565b5f80610ead6110d7565b9050806001015f8573ffffffffffffffffffffffffffffffffffffffff1673ffffffffffffffffffffffffffffffffffffffff1681526020019081526020015f205f8473ffffffffffffffffffffffffffffffffffffffff1673ffffffffffffffffffffffffffffffffffffffff1681526020019081526020015f205491505092915050565b6a295be96e6406697200000081565b610f4a611652565b5f73ffffffffffffffffffffffffffffffffffffffff168173ffffffffffffffffffffffffffffffffffffffff1603610fba575f6040517f1e4fbdf7000000000000000000000000000000000000000000000000000000008152600401610fb19190613082565b60405180910390fd5b610fc3816116d9565b50565b5f60018383604051610fd992919061334a565b908152602001604051809103902090505f816003015411610ffd57610ffc613362565b5b5f4290505f82600101548261101291906133bc565b9050825f015481101561102857611027613362565b5b5f8360020154821161103a5781611040565b83600201545b90505f846002015482866003015461105891906133ef565b611062919061345d565b90505f85600401548261107591906133bc565b90505f811161108757611086613362565b5b80866004015f82825461109a919061348d565b925050819055506110cd60025f9054906101000a900473ffffffffffffffffffffffffffffffffffffffff1633836111b0565b5050505050505050565b5f7f52c63247e1f47db19d5ce0460030c497f067ca4cebf71ba98eeadabe20bace00905090565b5f6111076121bc565b905090565b61111983838360016121c3565b505050565b5f6111298484610ea3565b90507fffffffffffffffffffffffffffffffffffffffffffffffffffffffffffffffff81146111aa578181101561119b578281836040517ffb8f41b2000000000000000000000000000000000000000000000000000000008152600401611192939291906134c0565b60405180910390fd5b6111a984848484035f6121c3565b5b50505050565b5f73ffffffffffffffffffffffffffffffffffffffff168373ffffffffffffffffffffffffffffffffffffffff1603611220575f6040517f96c6fd1e0000000000000000000000000000000000000000000000000000000081526004016112179190613082565b60405180910390fd5b5f73ffffffffffffffffffffffffffffffffffffffff168273ffffffffffffffffffffffffffffffffffffffff1603611290575f6040517fec442f050000000000000000000000000000000000000000000000000000000081526004016112879190613082565b60405180910390fd5b61129b8383836123a0565b505050565b6112a86123b8565b5f6112b161162b565b90505f815f015f6101000a81548160ff0219169083151502179055507f5db9ee0a495bf2e6ff9c91a7834c1ba4fdd244a5e8aa4e537bd38aeae4b073aa6112f66110fe565b6040516113039190613082565b60405180910390a150565b7f000000000000000000000000000000000000000000000000000000000000000073ffffffffffffffffffffffffffffffffffffffff163073ffffffffffffffffffffffffffffffffffffffff1614806113bb57507f000000000000000000000000000000000000000000000000000000000000000073ffffffffffffffffffffffffffffffffffffffff166113a26123f8565b73ffffffffffffffffffffffffffffffffffffffff1614155b156113f2576040517fe07c8dba00000000000000000000000000000000000000000000000000000000815260040160405180910390fd5b565b60025f9054906101000a900473ffffffffffffffffffffffffffffffffffffffff1673ffffffffffffffffffffffffffffffffffffffff163373ffffffffffffffffffffffffffffffffffffffff1614611483576040517f08c379a000000000000000000000000000000000000000000000000000000000815260040161147a90613228565b60405180910390fd5b50565b8173ffffffffffffffffffffffffffffffffffffffff166352d1902d6040518163ffffffff1660e01b8152600401602060405180830381865afa9250505080156114ee57506040513d601f19601f820116820180604052508101906114eb919061351f565b60015b61152f57816040517f4c9c8ce30000000000000000000000000000000000000000000000000000000081526004016115269190613082565b60405180910390fd5b7f360894a13ba1a3210667c828492db98dca3e2076cc3735a920a3ca505d382bbc5f1b811461159557806040517faa1d49a400000000000000000000000000000000000000000000000000000000815260040161158c919061303e565b60405180910390fd5b61159f838361244b565b505050565b7f000000000000000000000000000000000000000000000000000000000000000073ffffffffffffffffffffffffffffffffffffffff163073ffffffffffffffffffffffffffffffffffffffff1614611629576040517fe07c8dba00000000000000000000000000000000000000000000000000000000815260040160405180910390fd5b565b5f7fcd5ed15c6e187e77e9aee88184c21f4f2182ab5827cb3b7e07fbedcd63f03300905090565b61165a6110fe565b73ffffffffffffffffffffffffffffffffffffffff16611678610a8d565b73ffffffffffffffffffffffffffffffffffffffff16146116d75761169b6110fe565b6040517f118cdaa70000000000000000000000000000000000000000000000000000000081526004016116ce9190613082565b60405180910390fd5b565b5f6116e2611819565b90505f815f015f9054906101000a900473ffffffffffffffffffffffffffffffffffffffff16905082825f015f6101000a81548173ffffffffffffffffffffffffffffffffffffffff021916908373ffffffffffffffffffffffffffffffffffffffff1602179055508273ffffffffffffffffffffffffffffffffffffffff168173ffffffffffffffffffffffffffffffffffffffff167f8be0079c531659141344cd1fd0a4f28419497f9722a3daafe3b4186f6b6457e060405160405180910390a3505050565b6117b26124bd565b5f6117bb61162b565b90506001815f015f6101000a81548160ff0219169083151502179055507f62e78cea01bee320cd4e420270b5ea74000d11b0c9f74754ebdbfc544b05a2586118016110fe565b60405161180e9190613082565b60405180910390a150565b5f7f9016d09d72d40fdae2fd8ceac6b6234c7706214fd39c1cd1e609a0528c199300905090565b5f7ff0c57e16840df040f15088dc2f81fe391c3923bec73e23a9662efc9c229c6a00905090565b61186f6124fe565b611879828261253e565b5050565b6118856124fe565b61188e8161257a565b50565b6118996124fe565b6118a16125fe565b565b6118ab6124fe565b565b5f73ffffffffffffffffffffffffffffffffffffffff168273ffffffffffffffffffffffffffffffffffffffff160361191d575f6040517fec442f050000000000000000000000000000000000000000000000000000000081526004016119149190613082565b60405180910390fd5b6119285f83836123a0565b5050565b5f806040518060e001604052805f81526020015f5481526020016202a30081526020016aa56fa5b99019a5c800000081526020015f81526020015f1515815260200160025f9054906101000a900473ffffffffffffffffffffffffffffffffffffffff1673ffffffffffffffffffffffffffffffffffffffff1681525090508060016040516119ba90613594565b90815260200160405180910390205f820151815f01556020820151816001015560408201518160020155606082015181600301556080820151816004015560a0820151816005015f6101000a81548160ff02191690831515021790555060c08201518160050160016101000a81548173ffffffffffffffffffffffffffffffffffffffff021916908373ffffffffffffffffffffffffffffffffffffffff1602179055509050507fa5f00b4dd117c24e0abff4ed0d309de97d0739d6ccb9bd64c7c86035e88a3a2e81604051611a909190613683565b60405180910390a16040518060e001604052808381526020015f5481526020016202a30081526020016aa56fa5b99019a5c800000081526020015f81526020015f1515815260200160025f9054906101000a900473ffffffffffffffffffffffffffffffffffffffff1673ffffffffffffffffffffffffffffffffffffffff168152506001604051611b21906136fa565b90815260200160405180910390205f820151815f01556020820151816001015560408201518160020155606082015181600301556080820151816004015560a0820151816005015f6101000a81548160ff02191690831515021790555060c08201518160050160016101000a81548173ffffffffffffffffffffffffffffffffffffffff021916908373ffffffffffffffffffffffffffffffffffffffff1602179055509050506040518060e001604052808381526020015f5481526020016202a30081526020016a7c13bc4b2c133c5600000081526020015f81526020015f1515815260200160025f9054906101000a900473ffffffffffffffffffffffffffffffffffffffff1673ffffffffffffffffffffffffffffffffffffffff168152506001604051611c5190613758565b90815260200160405180910390205f820151815f01556020820151816001015560408201518160020155606082015181600301556080820151816004015560a0820151816005015f6101000a81548160ff02191690831515021790555060c08201518160050160016101000a81548173ffffffffffffffffffffffffffffffffffffffff021916908373ffffffffffffffffffffffffffffffffffffffff1602179055509050506040518060e001604052808381526020015f5481526020016202a30081526020016a7c13bc4b2c133c5600000081526020015f81526020015f1515815260200160025f9054906101000a900473ffffffffffffffffffffffffffffffffffffffff1673ffffffffffffffffffffffffffffffffffffffff168152506001604051611d81906137b6565b90815260200160405180910390205f820151815f01556020820151816001015560408201518160020155606082015181600301556080820151816004015560a0820151816005015f6101000a81548160ff02191690831515021790555060c08201518160050160016101000a81548173ffffffffffffffffffffffffffffffffffffffff021916908373ffffffffffffffffffffffffffffffffffffffff1602179055509050506040518060e001604052808381526020015f5481526020016202a30081526020016a52b7d2dcc80cd2e400000081526020015f81526020015f1515815260200160025f9054906101000a900473ffffffffffffffffffffffffffffffffffffffff1673ffffffffffffffffffffffffffffffffffffffff168152506001604051611eb190613814565b90815260200160405180910390205f820151815f01556020820151816001015560408201518160020155606082015181600301556080820151816004015560a0820151816005015f6101000a81548160ff02191690831515021790555060c08201518160050160016101000a81548173ffffffffffffffffffffffffffffffffffffffff021916908373ffffffffffffffffffffffffffffffffffffffff1602179055509050506040518060e001604052808381526020015f5481526020016202a30081526020016a295be96e6406697200000081526020015f81526020015f1515815260200160025f9054906101000a900473ffffffffffffffffffffffffffffffffffffffff1673ffffffffffffffffffffffffffffffffffffffff168152506001604051611fe190613872565b90815260200160405180910390205f820151815f01556020820151816001015560408201518160020155606082015181600301556080820151816004015560a0820151816005015f6101000a81548160ff02191690831515021790555060c08201518160050160016101000a81548173ffffffffffffffffffffffffffffffffffffffff021916908373ffffffffffffffffffffffffffffffffffffffff1602179055509050506040518060e001604052808381526020015f5481526020016202a30081526020016a295be96e6406697200000081526020015f81526020015f1515815260200160025f9054906101000a900473ffffffffffffffffffffffffffffffffffffffff1673ffffffffffffffffffffffffffffffffffffffff168152506001604051612111906138d0565b90815260200160405180910390205f820151815f01556020820151816001015560408201518160020155606082015181600301556080820151816004015560a0820151816005015f6101000a81548160ff02191690831515021790555060c08201518160050160016101000a81548173ffffffffffffffffffffffffffffffffffffffff021916908373ffffffffffffffffffffffffffffffffffffffff1602179055509050505050565b5f33905090565b5f6121cc6110d7565b90505f73ffffffffffffffffffffffffffffffffffffffff168573ffffffffffffffffffffffffffffffffffffffff160361223e575f6040517fe602df050000000000000000000000000000000000000000000000000000000081526004016122359190613082565b60405180910390fd5b5f73ffffffffffffffffffffffffffffffffffffffff168473ffffffffffffffffffffffffffffffffffffffff16036122ae575f6040517f94280d620000000000000000000000000000000000000000000000000000000081526004016122a59190613082565b60405180910390fd5b82816001015f8773ffffffffffffffffffffffffffffffffffffffff1673ffffffffffffffffffffffffffffffffffffffff1681526020019081526020015f205f8673ffffffffffffffffffffffffffffffffffffffff1673ffffffffffffffffffffffffffffffffffffffff1681526020019081526020015f20819055508115612399578373ffffffffffffffffffffffffffffffffffffffff168573ffffffffffffffffffffffffffffffffffffffff167f8c5be1e5ebec7d5bd14f71427d1e84f3dd0314c0f7b2291e5b200ac8c7c3b925856040516123909190612e91565b60405180910390a35b5050505050565b6123a86124bd565b6123b383838361262e565b505050565b6123c061095d565b6123f6576040517f8dfc202b00000000000000000000000000000000000000000000000000000000815260040160405180910390fd5b565b5f6124247f360894a13ba1a3210667c828492db98dca3e2076cc3735a920a3ca505d382bbc5f1b61285d565b5f015f9054906101000a900473ffffffffffffffffffffffffffffffffffffffff16905090565b61245482612866565b8173ffffffffffffffffffffffffffffffffffffffff167fbc7cd75a20ee27fd9adebab32041f755214dbc6bffa90cc0225b39da2e5c2d3b60405160405180910390a25f815111156124b0576124aa828261292f565b506124b9565b6124b86129af565b5b5050565b6124c561095d565b156124fc576040517fd93c066500000000000000000000000000000000000000000000000000000000815260040160405180910390fd5b565b6125066129eb565b61253c576040517fd7e6bcf800000000000000000000000000000000000000000000000000000000815260040160405180910390fd5b565b6125466124fe565b5f61254f6110d7565b9050828160030190816125629190613a78565b50818160040190816125749190613a78565b50505050565b6125826124fe565b5f73ffffffffffffffffffffffffffffffffffffffff168173ffffffffffffffffffffffffffffffffffffffff16036125f2575f6040517f1e4fbdf70000000000000000000000000000000000000000000000000000000081526004016125e99190613082565b60405180910390fd5b6125fb816116d9565b50565b6126066124fe565b5f61260f61162b565b90505f815f015f6101000a81548160ff02191690831515021790555050565b5f6126376110d7565b90505f73ffffffffffffffffffffffffffffffffffffffff168473ffffffffffffffffffffffffffffffffffffffff160361268b5781816002015f82825461267f919061348d565b9250508190555061275d565b5f815f015f8673ffffffffffffffffffffffffffffffffffffffff1673ffffffffffffffffffffffffffffffffffffffff1681526020019081526020015f2054905082811015612716578481846040517fe450d38c00000000000000000000000000000000000000000000000000000000815260040161270d939291906134c0565b60405180910390fd5b828103825f015f8773ffffffffffffffffffffffffffffffffffffffff1673ffffffffffffffffffffffffffffffffffffffff1681526020019081526020015f2081905550505b5f73ffffffffffffffffffffffffffffffffffffffff168373ffffffffffffffffffffffffffffffffffffffff16036127a65781816002015f82825403925050819055506127f2565b81815f015f8573ffffffffffffffffffffffffffffffffffffffff1673ffffffffffffffffffffffffffffffffffffffff1681526020019081526020015f205f82825401925050819055505b8273ffffffffffffffffffffffffffffffffffffffff168473ffffffffffffffffffffffffffffffffffffffff167fddf252ad1be2c89b69c2b068fc378daa952ba7f163c4a11628f55a4df523b3ef8460405161284f9190612e91565b60405180910390a350505050565b5f819050919050565b5f8173ffffffffffffffffffffffffffffffffffffffff163b036128c157806040517f4c9c8ce30000000000000000000000000000000000000000000000000000000081526004016128b89190613082565b60405180910390fd5b806128ed7f360894a13ba1a3210667c828492db98dca3e2076cc3735a920a3ca505d382bbc5f1b61285d565b5f015f6101000a81548173ffffffffffffffffffffffffffffffffffffffff021916908373ffffffffffffffffffffffffffffffffffffffff16021790555050565b60605f808473ffffffffffffffffffffffffffffffffffffffff16846040516129589190613b8b565b5f60405180830381855af49150503d805f8114612990576040519150601f19603f3d011682016040523d82523d5f602084013e612995565b606091505b50915091506129a5858383612a09565b9250505092915050565b5f3411156129e9576040517fb398979f00000000000000000000000000000000000000000000000000000000815260040160405180910390fd5b565b5f6129f4611840565b5f0160089054906101000a900460ff16905090565b606082612a1e57612a1982612a96565b612a8e565b5f8251148015612a4457505f8473ffffffffffffffffffffffffffffffffffffffff163b145b15612a8657836040517f9996b315000000000000000000000000000000000000000000000000000000008152600401612a7d9190613082565b60405180910390fd5b819050612a8f565b5b9392505050565b5f81511115612aa85780518082602001fd5b6040517f1425ea4200000000000000000000000000000000000000000000000000000000815260040160405180910390fd5b5f604051905090565b5f80fd5b5f80fd5b5f80fd5b5f80fd5b5f601f19601f8301169050919050565b7f4e487b71000000000000000000000000000000000000000000000000000000005f52604160045260245ffd5b612b3982612af3565b810181811067ffffffffffffffff82111715612b5857612b57612b03565b5b80604052505050565b5f612b6a612ada565b9050612b768282612b30565b919050565b5f67ffffffffffffffff821115612b9557612b94612b03565b5b612b9e82612af3565b9050602081019050919050565b828183375f83830152505050565b5f612bcb612bc684612b7b565b612b61565b905082815260208101848484011115612be757612be6612aef565b5b612bf2848285612bab565b509392505050565b5f82601f830112612c0e57612c0d612aeb565b5b8135612c1e848260208601612bb9565b91505092915050565b5f60208284031215612c3c57612c3b612ae3565b5b5f82013567ffffffffffffffff811115612c5957612c58612ae7565b5b612c6584828501612bfa565b91505092915050565b5f819050919050565b612c8081612c6e565b82525050565b5f8115159050919050565b612c9a81612c86565b82525050565b5f73ffffffffffffffffffffffffffffffffffffffff82169050919050565b5f612cc982612ca0565b9050919050565b612cd981612cbf565b82525050565b5f60e082019050612cf25f83018a612c77565b612cff6020830189612c77565b612d0c6040830188612c77565b612d196060830187612c77565b612d266080830186612c77565b612d3360a0830185612c91565b612d4060c0830184612cd0565b98975050505050505050565b5f81519050919050565b5f82825260208201905092915050565b5f5b83811015612d83578082015181840152602081019050612d68565b5f8484015250505050565b5f612d9882612d4c565b612da28185612d56565b9350612db2818560208601612d66565b612dbb81612af3565b840191505092915050565b5f6020820190508181035f830152612dde8184612d8e565b905092915050565b612def81612cbf565b8114612df9575f80fd5b50565b5f81359050612e0a81612de6565b92915050565b612e1981612c6e565b8114612e23575f80fd5b50565b5f81359050612e3481612e10565b92915050565b5f8060408385031215612e5057612e4f612ae3565b5b5f612e5d85828601612dfc565b9250506020612e6e85828601612e26565b9150509250929050565b5f602082019050612e8b5f830184612c91565b92915050565b5f602082019050612ea45f830184612c77565b92915050565b5f805f60608486031215612ec157612ec0612ae3565b5b5f612ece86828701612dfc565b9350506020612edf86828701612dfc565b9250506040612ef086828701612e26565b9150509250925092565b5f60ff82169050919050565b612f0f81612efa565b82525050565b5f602082019050612f285f830184612f06565b92915050565b5f67ffffffffffffffff821115612f4857612f47612b03565b5b612f5182612af3565b9050602081019050919050565b5f612f70612f6b84612f2e565b612b61565b905082815260208101848484011115612f8c57612f8b612aef565b5b612f97848285612bab565b509392505050565b5f82601f830112612fb357612fb2612aeb565b5b8135612fc3848260208601612f5e565b91505092915050565b5f8060408385031215612fe257612fe1612ae3565b5b5f612fef85828601612dfc565b925050602083013567ffffffffffffffff8111156130105761300f612ae7565b5b61301c85828601612f9f565b9150509250929050565b5f819050919050565b61303881613026565b82525050565b5f6020820190506130515f83018461302f565b92915050565b5f6020828403121561306c5761306b612ae3565b5b5f61307984828501612dfc565b91505092915050565b5f6020820190506130955f830184612cd0565b92915050565b5f80604083850312156130b1576130b0612ae3565b5b5f6130be85828601612dfc565b92505060206130cf85828601612dfc565b9150509250929050565b5f80fd5b5f80fd5b5f8083601f8401126130f6576130f5612aeb565b5b8235905067ffffffffffffffff811115613113576131126130d9565b5b60208301915083600182028301111561312f5761312e6130dd565b5b9250929050565b5f806020838503121561314c5761314b612ae3565b5b5f83013567ffffffffffffffff81111561316957613168612ae7565b5b613175858286016130e1565b92509250509250929050565b7f4e487b71000000000000000000000000000000000000000000000000000000005f52602260045260245ffd5b5f60028204905060018216806131c557607f821691505b6020821081036131d8576131d7613181565b5b50919050565b7f4f6e6c792074686520536166652063616e20706572666f726d207468697300005f82015250565b5f613212601e83612d56565b915061321d826131de565b602082019050919050565b5f6020820190508181035f83015261323f81613206565b9050919050565b7f636f6e747261637420696e6974000000000000000000000000000000000000005f82015250565b5f61327a600d83612d56565b915061328582613246565b602082019050919050565b5f6020820190508181035f8301526132a78161326e565b9050919050565b5f819050919050565b5f67ffffffffffffffff82169050919050565b5f819050919050565b5f6132ed6132e86132e3846132ae565b6132ca565b6132b7565b9050919050565b6132fd816132d3565b82525050565b5f6020820190506133165f8301846132f4565b92915050565b5f81905092915050565b5f613331838561331c565b935061333e838584612bab565b82840190509392505050565b5f613356828486613326565b91508190509392505050565b7f4e487b71000000000000000000000000000000000000000000000000000000005f52600160045260245ffd5b7f4e487b71000000000000000000000000000000000000000000000000000000005f52601160045260245ffd5b5f6133c682612c6e565b91506133d183612c6e565b92508282039050818111156133e9576133e861338f565b5b92915050565b5f6133f982612c6e565b915061340483612c6e565b925082820261341281612c6e565b915082820484148315176134295761342861338f565b5b5092915050565b7f4e487b71000000000000000000000000000000000000000000000000000000005f52601260045260245ffd5b5f61346782612c6e565b915061347283612c6e565b92508261348257613481613430565b5b828204905092915050565b5f61349782612c6e565b91506134a283612c6e565b92508282019050808211156134ba576134b961338f565b5b92915050565b5f6060820190506134d35f830186612cd0565b6134e06020830185612c77565b6134ed6040830184612c77565b949350505050565b6134fe81613026565b8114613508575f80fd5b50565b5f81519050613519816134f5565b92915050565b5f6020828403121561353457613533612ae3565b5b5f6135418482850161350b565b91505092915050565b7f696e766573746f727300000000000000000000000000000000000000000000005f82015250565b5f61357e60098361331c565b91506135898261354a565b600982019050919050565b5f61359e82613572565b9150819050919050565b5f6135b4600983612d56565b91506135bf8261354a565b602082019050919050565b6135d381612c6e565b82525050565b6135e281612c86565b82525050565b6135f181612cbf565b82525050565b60e082015f82015161360b5f8501826135ca565b50602082015161361e60208501826135ca565b50604082015161363160408501826135ca565b50606082015161364460608501826135ca565b50608082015161365760808501826135ca565b5060a082015161366a60a08501826135d9565b5060c082015161367d60c08501826135e8565b50505050565b5f610100820190508181035f83015261369b816135a8565b90506136aa60208301846135f7565b92915050565b7f7465616d000000000000000000000000000000000000000000000000000000005f82015250565b5f6136e460048361331c565b91506136ef826136b0565b600482019050919050565b5f613704826136d8565b9150819050919050565b7f72657761726473000000000000000000000000000000000000000000000000005f82015250565b5f61374260078361331c565b915061374d8261370e565b600782019050919050565b5f61376282613736565b9150819050919050565b7f61697264726f70000000000000000000000000000000000000000000000000005f82015250565b5f6137a060078361331c565b91506137ab8261376c565b600782019050919050565b5f6137c082613794565b9150819050919050565b7f636f6d6d756e69747900000000000000000000000000000000000000000000005f82015250565b5f6137fe60098361331c565b9150613809826137ca565b600982019050919050565b5f61381e826137f2565b9150819050919050565b7f7374616b696e67000000000000000000000000000000000000000000000000005f82015250565b5f61385c60078361331c565b915061386782613828565b600782019050919050565b5f61387c82613850565b9150819050919050565b7f6c697175696469747900000000000000000000000000000000000000000000005f82015250565b5f6138ba60098361331c565b91506138c582613886565b600982019050919050565b5f6138da826138ae565b9150819050919050565b5f819050815f5260205f209050919050565b5f6020601f8301049050919050565b5f82821b905092915050565b5f600883026139407fffffffffffffffffffffffffffffffffffffffffffffffffffffffffffffffff82613905565b61394a8683613905565b95508019841693508086168417925050509392505050565b5f61397c61397761397284612c6e565b6132ca565b612c6e565b9050919050565b5f819050919050565b61399583613962565b6139a96139a182613983565b848454613911565b825550505050565b5f90565b6139bd6139b1565b6139c881848461398c565b505050565b5b818110156139eb576139e05f826139b5565b6001810190506139ce565b5050565b601f821115613a3057613a01816138e4565b613a0a846138f6565b81016020851015613a19578190505b613a2d613a25856138f6565b8301826139cd565b50505b505050565b5f82821c905092915050565b5f613a505f1984600802613a35565b1980831691505092915050565b5f613a688383613a41565b9150826002028217905092915050565b613a8182612d4c565b67ffffffffffffffff811115613a9a57613a99612b03565b5b613aa482546131ae565b613aaf8282856139ef565b5f60209050601f831160018114613ae0575f8415613ace578287015190505b613ad88582613a5d565b865550613b3f565b601f198416613aee866138e4565b5f5b82811015613b1557848901518255600182019150602085019450602081019050613af0565b86831015613b325784890151613b2e601f891682613a41565b8355505b6001600288020188555050505b505050505050565b5f81519050919050565b5f81905092915050565b5f613b6582613b47565b613b6f8185613b51565b9350613b7f818560208601612d66565b80840191505092915050565b5f613b968284613b5b565b91508190509291505056fea26469706673582212200eb2f93effa7423189d7c1f8b17c046e0bb1c7f3f031e0f29c803379a8e157c564736f6c63430008180033",
  "immutableReferences": {
    "468": [
      {
        "length": 32,
        "start": 4880
      },
      {
        "length": 32,
        "start": 4965
      },
      {
        "length": 32,
        "start": 5542
      }
    ]
  },
  "source": "// SPDX-License-Identifier: MIT\npragma solidity 0.8.24;\n\nimport \"@openzeppelin/contracts-upgradeable/token/ERC20/ERC20Upgradeable.sol\";\nimport \"@openzeppelin/contracts-upgradeable/utils/PausableUpgradeable.sol\";\nimport \"@openzeppelin/contracts-upgradeable/access/OwnableUpgradeable.sol\";\nimport \"@openzeppelin/contracts-upgradeable/proxy/utils/Initializable.sol\";\nimport \"@openzeppelin/contracts-upgradeable/proxy/utils/UUPSUpgradeable.sol\";\n\n\n\n\ncontract SapTestToken is\n    Initializable,\n    ERC20Upgradeable,\n    PausableUpgradeable,\n    OwnableUpgradeable,\n    UUPSUpgradeable\n{\n    struct VestingSchedule {\n        uint256 cliff; // The time period after which vesting starts\n        uint256 start; // When vesting begins\n        uint256 duration; // The total vesting period\n        uint256 amount; // The total amount to be vested\n        uint256 released; // The amount already released\n        bool revoked; // Whether the vesting has been revoked\n        address safe; // Safe address\n    }\n    event VestingScheduleCreated(string allocationType, VestingSchedule schedule);\n    event ContractInitiated(string msg);\n\n\n    // Allocation constants\n    uint256 public constant INVESTORS_ALLOCATION = 300000000 * 10 ** 18;\n    uint256 public constant TEAM_ADVISORS_ALLOCATION = 200000000 * 10 ** 18;\n    uint256 public constant LABELING_REWARDS_ALLOCATION = 150000000 * 10 ** 18;\n    uint256 public constant AIRDROPS_ALLOCATION = 150000000 * 10 ** 18;\n    uint256 public constant COMMUNITY_TREASURY_ALLOCATION =\n        100000000 * 10 ** 18;\n    uint256 public constant STAKING_INCENTIVES_ALLOCATION = 50000000 * 10 ** 18;\n    uint256 public constant LIQUIDITY_INCENTIVES_ALLOCATION =\n        50000000 * 10 ** 18;\n\n    // Vesting related variables\n    uint256 private vestingStartTimestamp;\n\n    mapping(string => VestingSchedule) public vestingSchedules;\n\n    address public gnosisSafe;\n\n\n    // Modifier to restrict access to only the Gnosis Safe\n    modifier onlySafe() {\n        require(\n            msg.sender == gnosisSafe,\n            \"Only the Safe can perform this\"\n        );\n        _;\n    }\n\n    function initialize(\n        address _gnosisSafe,\n        uint256 _totalSupply\n    ) public initializer {\n        gnosisSafe = _gnosisSafe;\n        __ERC20_init(\"SapTestToken\", \"SAPTEST\");\n        __Ownable_init(gnosisSafe);\n        __Pausable_init();\n        __UUPSUpgradeable_init();\n        emit ContractInitiated(\"contract init\");\n        vestingStartTimestamp = block.timestamp;\n\n        // Mint total supply to Gnosis Safe\n        _mint(_gnosisSafe, _totalSupply);\n\n        // Hardcoded vesting schedules for different allocations\n        _createHardcodedVestingSchedules();\n    }\n\n    function _createHardcodedVestingSchedules() internal {\n        uint256 cliff = 0 days;\n        VestingSchedule memory teamSchedule = VestingSchedule({\n        cliff: 0,\n        start: vestingStartTimestamp,\n        duration: 2 * 1 days,\n        amount: TEAM_ADVISORS_ALLOCATION,\n        released: 0,\n        revoked: false,\n        safe: gnosisSafe\n        });\n        vestingSchedules[\"investors\"] = teamSchedule;\n\n        emit VestingScheduleCreated(\"investors\", teamSchedule);\n        vestingSchedules[\"team\"] = VestingSchedule({\n            cliff: cliff,\n            start: vestingStartTimestamp,\n            duration: 2 * 1 days, // 2 days vesting duration\n            amount: TEAM_ADVISORS_ALLOCATION,\n            released: 0,\n            revoked: false,\n            safe: gnosisSafe\n        });\n        vestingSchedules[\"rewards\"] = VestingSchedule({\n            cliff: cliff,\n            start: vestingStartTimestamp,\n            duration: 2 * 1 days, // 2 days vesting duration\n            amount: LABELING_REWARDS_ALLOCATION,\n            released: 0,\n            revoked: false,\n            safe: gnosisSafe\n        });\n        vestingSchedules[\"airdrop\"] = VestingSchedule({\n            cliff: cliff,\n            start: vestingStartTimestamp,\n            duration: 2 * 1 days, // 2 days vesting duration\n            amount: AIRDROPS_ALLOCATION,\n            released: 0,\n            revoked: false,\n            safe: gnosisSafe\n        });\n        vestingSchedules[\"community\"] = VestingSchedule({\n            cliff: cliff,\n            start: vestingStartTimestamp,\n            duration: 2 * 1 days, // 2 days vesting duration\n            amount: COMMUNITY_TREASURY_ALLOCATION,\n            released: 0,\n            revoked: false,\n            safe: gnosisSafe\n        });\n        vestingSchedules[\"staking\"] = VestingSchedule({\n            cliff: cliff,\n            start: vestingStartTimestamp,\n            duration: 2 * 1 days, // 2 days vesting duration\n            amount: STAKING_INCENTIVES_ALLOCATION,\n            released: 0,\n            revoked: false,\n            safe: gnosisSafe\n        });\n        vestingSchedules[\"liquidity\"] = VestingSchedule({\n            cliff: cliff,\n            start: vestingStartTimestamp,\n            duration: 2 * 1 days, // 2 days vesting duration\n            amount: LIQUIDITY_INCENTIVES_ALLOCATION,\n            released: 0,\n            revoked: false,\n            safe: gnosisSafe\n        });\n    }\n\n   function releaseTokens(string calldata allocationType) external  {\n    VestingSchedule storage schedule = vestingSchedules[allocationType];\n    assert(schedule.amount > 0);\n\n    uint256 currentTime = block.timestamp;\n    uint256 elapsedTime = currentTime - schedule.start;\n    assert(elapsedTime >= schedule.cliff);\n\n    uint256 vestingPeriod = elapsedTime > schedule.duration ? schedule.duration : elapsedTime;\n    uint256 vestedAmount = (schedule.amount * vestingPeriod) / schedule.duration;\n    uint256 releasableAmount = vestedAmount - schedule.released;\n    assert(releasableAmount > 0);\n\n    schedule.released += releasableAmount;\n    _transfer(gnosisSafe, msg.sender, releasableAmount);\n    }\n\n    // Pause token transfers, only Gnosis Safe can call this function\n    function pause() external onlySafe {\n        _pause();\n    }\n\n    // Resume token transfers, only Gnosis Safe can call this function\n    function unpause() external onlySafe {\n        _unpause();\n    }\n\n    // Override ERC20 transfer functions to respect pause functionality\n    function _update(\n        address from,\n        address to,\n        uint256 amount\n    ) internal virtual override(ERC20Upgradeable) whenNotPaused {\n        super._update(from, to, amount);\n    }\n\n    function _msgSender()\n        internal\n        view\n        virtual\n        override(ContextUpgradeable)\n        returns (address)\n    {\n        return super._msgSender();\n    }\n\n    function _msgData()\n        internal\n        view\n        virtual\n        override(ContextUpgradeable)\n        returns (bytes calldata)\n    {\n        return super._msgData();\n    }\n\n    // Override _contextSuffixLength to avoid conflicts\n    function _contextSuffixLength()\n        internal\n        view\n        virtual\n        override(ContextUpgradeable)\n        returns (uint256)\n    {\n        return super._contextSuffixLength();\n    }\n\n     // UUPS authorize upgrade function - must be implemented\n    function _authorizeUpgrade(address newImplementation) internal override onlySafe {\n\n    }\n}\n",
  "sourcePath": "/Users/sinadeyhim/dev/sapien-contracts/contracts/SapTestToken.sol",
  "compiler": {
    "name": "solc",
    "version": "0.8.24+commit.e11b9ed9.Emscripten.clang"
  },
  "schemaVersion": "3.4.16",
  "updatedAt": "2024-09-20T13:10:32.046Z",
  "devdoc": {
    "errors": {
      "AddressEmptyCode(address)": [
        {
          "details": "There's no code at `target` (it is not a contract)."
        }
      ],
      "ERC1967InvalidImplementation(address)": [
        {
          "details": "The `implementation` of the proxy is invalid."
        }
      ],
      "ERC1967NonPayable()": [
        {
          "details": "An upgrade function sees `msg.value > 0` that may be lost."
        }
      ],
      "ERC20InsufficientAllowance(address,uint256,uint256)": [
        {
          "details": "Indicates a failure with the `spender`s `allowance`. Used in transfers.",
          "params": {
            "allowance": "Amount of tokens a `spender` is allowed to operate with.",
            "needed": "Minimum amount required to perform a transfer.",
            "spender": "Address that may be allowed to operate on tokens without being their owner."
          }
        }
      ],
      "ERC20InsufficientBalance(address,uint256,uint256)": [
        {
          "details": "Indicates an error related to the current `balance` of a `sender`. Used in transfers.",
          "params": {
            "balance": "Current balance for the interacting account.",
            "needed": "Minimum amount required to perform a transfer.",
            "sender": "Address whose tokens are being transferred."
          }
        }
      ],
      "ERC20InvalidApprover(address)": [
        {
          "details": "Indicates a failure with the `approver` of a token to be approved. Used in approvals.",
          "params": {
            "approver": "Address initiating an approval operation."
          }
        }
      ],
      "ERC20InvalidReceiver(address)": [
        {
          "details": "Indicates a failure with the token `receiver`. Used in transfers.",
          "params": {
            "receiver": "Address to which tokens are being transferred."
          }
        }
      ],
      "ERC20InvalidSender(address)": [
        {
          "details": "Indicates a failure with the token `sender`. Used in transfers.",
          "params": {
            "sender": "Address whose tokens are being transferred."
          }
        }
      ],
      "ERC20InvalidSpender(address)": [
        {
          "details": "Indicates a failure with the `spender` to be approved. Used in approvals.",
          "params": {
            "spender": "Address that may be allowed to operate on tokens without being their owner."
          }
        }
      ],
      "EnforcedPause()": [
        {
          "details": "The operation failed because the contract is paused."
        }
      ],
      "ExpectedPause()": [
        {
          "details": "The operation failed because the contract is not paused."
        }
      ],
      "FailedInnerCall()": [
        {
          "details": "A call to an address target failed. The target may have reverted."
        }
      ],
      "InvalidInitialization()": [
        {
          "details": "The contract is already initialized."
        }
      ],
      "NotInitializing()": [
        {
          "details": "The contract is not initializing."
        }
      ],
      "OwnableInvalidOwner(address)": [
        {
          "details": "The owner is not a valid owner account. (eg. `address(0)`)"
        }
      ],
      "OwnableUnauthorizedAccount(address)": [
        {
          "details": "The caller account is not authorized to perform an operation."
        }
      ],
      "UUPSUnauthorizedCallContext()": [
        {
          "details": "The call is from an unauthorized context."
        }
      ],
      "UUPSUnsupportedProxiableUUID(bytes32)": [
        {
          "details": "The storage `slot` is unsupported as a UUID."
        }
      ]
    },
    "events": {
      "Approval(address,address,uint256)": {
        "details": "Emitted when the allowance of a `spender` for an `owner` is set by a call to {approve}. `value` is the new allowance."
      },
      "Initialized(uint64)": {
        "details": "Triggered when the contract has been initialized or reinitialized."
      },
      "Paused(address)": {
        "details": "Emitted when the pause is triggered by `account`."
      },
      "Transfer(address,address,uint256)": {
        "details": "Emitted when `value` tokens are moved from one account (`from`) to another (`to`). Note that `value` may be zero."
      },
      "Unpaused(address)": {
        "details": "Emitted when the pause is lifted by `account`."
      },
      "Upgraded(address)": {
        "details": "Emitted when the implementation is upgraded."
      }
    },
    "kind": "dev",
    "methods": {
      "allowance(address,address)": {
        "details": "See {IERC20-allowance}."
      },
      "approve(address,uint256)": {
        "details": "See {IERC20-approve}. NOTE: If `value` is the maximum `uint256`, the allowance is not updated on `transferFrom`. This is semantically equivalent to an infinite approval. Requirements: - `spender` cannot be the zero address."
      },
      "balanceOf(address)": {
        "details": "See {IERC20-balanceOf}."
      },
      "decimals()": {
        "details": "Returns the number of decimals used to get its user representation. For example, if `decimals` equals `2`, a balance of `505` tokens should be displayed to a user as `5.05` (`505 / 10 ** 2`). Tokens usually opt for a value of 18, imitating the relationship between Ether and Wei. This is the default value returned by this function, unless it's overridden. NOTE: This information is only used for _display_ purposes: it in no way affects any of the arithmetic of the contract, including {IERC20-balanceOf} and {IERC20-transfer}."
      },
      "name()": {
        "details": "Returns the name of the token."
      },
      "owner()": {
        "details": "Returns the address of the current owner."
      },
      "paused()": {
        "details": "Returns true if the contract is paused, and false otherwise."
      },
      "proxiableUUID()": {
        "details": "Implementation of the ERC1822 {proxiableUUID} function. This returns the storage slot used by the implementation. It is used to validate the implementation's compatibility when performing an upgrade. IMPORTANT: A proxy pointing at a proxiable contract should not be considered proxiable itself, because this risks bricking a proxy that upgrades to it, by delegating to itself until out of gas. Thus it is critical that this function revert if invoked through a proxy. This is guaranteed by the `notDelegated` modifier."
      },
      "renounceOwnership()": {
        "details": "Leaves the contract without owner. It will not be possible to call `onlyOwner` functions. Can only be called by the current owner. NOTE: Renouncing ownership will leave the contract without an owner, thereby disabling any functionality that is only available to the owner."
      },
      "symbol()": {
        "details": "Returns the symbol of the token, usually a shorter version of the name."
      },
      "totalSupply()": {
        "details": "See {IERC20-totalSupply}."
      },
      "transfer(address,uint256)": {
        "details": "See {IERC20-transfer}. Requirements: - `to` cannot be the zero address. - the caller must have a balance of at least `value`."
      },
      "transferFrom(address,address,uint256)": {
        "details": "See {IERC20-transferFrom}. Emits an {Approval} event indicating the updated allowance. This is not required by the EIP. See the note at the beginning of {ERC20}. NOTE: Does not update the allowance if the current allowance is the maximum `uint256`. Requirements: - `from` and `to` cannot be the zero address. - `from` must have a balance of at least `value`. - the caller must have allowance for ``from``'s tokens of at least `value`."
      },
      "transferOwnership(address)": {
        "details": "Transfers ownership of the contract to a new account (`newOwner`). Can only be called by the current owner."
      },
      "upgradeToAndCall(address,bytes)": {
        "custom:oz-upgrades-unsafe-allow-reachable": "delegatecall",
        "details": "Upgrade the implementation of the proxy to `newImplementation`, and subsequently execute the function call encoded in `data`. Calls {_authorizeUpgrade}. Emits an {Upgraded} event."
      }
    },
    "version": 1
  },
  "userdoc": {
    "kind": "user",
    "methods": {},
    "version": 1
  }
}